{
  "contractName": "Lottery",
  "abi": [
    {
      "inputs": [],
      "stateMutability": "nonpayable",
      "type": "constructor"
    },
    {
      "inputs": [],
      "name": "owner",
      "outputs": [
        {
          "internalType": "address",
          "name": "",
          "type": "address"
        }
      ],
      "stateMutability": "view",
      "type": "function",
      "constant": true
    },
    {
      "inputs": [],
      "name": "getSomeValue",
      "outputs": [
        {
          "internalType": "uint256",
          "name": "value",
          "type": "uint256"
        }
      ],
      "stateMutability": "pure",
      "type": "function",
      "constant": true
    }
  ],
  "bytecode": "0x608060405234801561001057600080fd5b50336000806101000a81548173ffffffffffffffffffffffffffffffffffffffff021916908373ffffffffffffffffffffffffffffffffffffffff16021790555061016a806100606000396000f3fe608060405234801561001057600080fd5b50600436106100365760003560e01c80638da5cb5b1461003b578063a40674b714610059575b600080fd5b610043610077565b60405161005091906100e5565b60405180910390f35b61006161009b565b60405161006e9190610119565b60405180910390f35b60008054906101000a900473ffffffffffffffffffffffffffffffffffffffff1681565b60006005905090565b600073ffffffffffffffffffffffffffffffffffffffff82169050919050565b60006100cf826100a4565b9050919050565b6100df816100c4565b82525050565b60006020820190506100fa60008301846100d6565b92915050565b6000819050919050565b61011381610100565b82525050565b600060208201905061012e600083018461010a565b9291505056fea2646970667358221220d4c0ad439064a7f06e0887de6c5d1b295d2aafc41782d8701718adabaf38876e64736f6c63430008110033",
  "immutableReferences": {},
  "source": "pragma solidity ^0.8.0;\r\n\r\ncontract Lottery{\r\n\r\n  //   truffle을 사용해 contract와 상호작용 확인\r\n  address public owner; //public쓰면 자동으로 getter 만들어줌\r\n  constructor() {\r\n    owner = msg.sender;\r\n  }\r\n\r\n  function getSomeValue() public pure returns (uint256 value){\r\n    return 5;\r\n  }\r\n}",
  "sourcePath": "C:\\git-dev\\lottery-smart-contract\\contracts\\Lottery.sol",
  "compiler": {
    "name": "solc",
    "version": "0.8.17+commit.8df45f5f.Emscripten.clang"
  },
  "schemaVersion": "3.4.10",
  "updatedAt": "2022-11-18T07:00:16.370Z",
  "networkType": "ethereum",
  "devdoc": {
    "kind": "dev",
    "methods": {},
    "version": 1
  },
  "userdoc": {
    "kind": "user",
    "methods": {},
    "version": 1
  }
}